{
  "_format": "hh-sol-artifact-1",
  "contractName": "Supplychain",
  "sourceName": "contracts/Supplychain.sol",
  "abi": [
    {
      "inputs": [],
      "stateMutability": "nonpayable",
      "type": "constructor"
    },
    {
      "inputs": [],
      "name": "AccessControlBadConfirmation",
      "type": "error"
    },
    {
      "inputs": [
        {
          "internalType": "address",
          "name": "account",
          "type": "address"
        },
        {
          "internalType": "bytes32",
          "name": "neededRole",
          "type": "bytes32"
        }
      ],
      "name": "AccessControlUnauthorizedAccount",
      "type": "error"
    },
    {
      "inputs": [
        {
          "internalType": "address",
          "name": "sender",
          "type": "address"
        },
        {
          "internalType": "uint256",
          "name": "tokenId",
          "type": "uint256"
        },
        {
          "internalType": "address",
          "name": "owner",
          "type": "address"
        }
      ],
      "name": "ERC721IncorrectOwner",
      "type": "error"
    },
    {
      "inputs": [
        {
          "internalType": "address",
          "name": "operator",
          "type": "address"
        },
        {
          "internalType": "uint256",
          "name": "tokenId",
          "type": "uint256"
        }
      ],
      "name": "ERC721InsufficientApproval",
      "type": "error"
    },
    {
      "inputs": [
        {
          "internalType": "address",
          "name": "approver",
          "type": "address"
        }
      ],
      "name": "ERC721InvalidApprover",
      "type": "error"
    },
    {
      "inputs": [
        {
          "internalType": "address",
          "name": "operator",
          "type": "address"
        }
      ],
      "name": "ERC721InvalidOperator",
      "type": "error"
    },
    {
      "inputs": [
        {
          "internalType": "address",
          "name": "owner",
          "type": "address"
        }
      ],
      "name": "ERC721InvalidOwner",
      "type": "error"
    },
    {
      "inputs": [
        {
          "internalType": "address",
          "name": "receiver",
          "type": "address"
        }
      ],
      "name": "ERC721InvalidReceiver",
      "type": "error"
    },
    {
      "inputs": [
        {
          "internalType": "address",
          "name": "sender",
          "type": "address"
        }
      ],
      "name": "ERC721InvalidSender",
      "type": "error"
    },
    {
      "inputs": [
        {
          "internalType": "uint256",
          "name": "tokenId",
          "type": "uint256"
        }
      ],
      "name": "ERC721NonexistentToken",
      "type": "error"
    },
    {
      "anonymous": false,
      "inputs": [
        {
          "indexed": true,
          "internalType": "address",
          "name": "owner",
          "type": "address"
        },
        {
          "indexed": true,
          "internalType": "address",
          "name": "approved",
          "type": "address"
        },
        {
          "indexed": true,
          "internalType": "uint256",
          "name": "tokenId",
          "type": "uint256"
        }
      ],
      "name": "Approval",
      "type": "event"
    },
    {
      "anonymous": false,
      "inputs": [
        {
          "indexed": true,
          "internalType": "address",
          "name": "owner",
          "type": "address"
        },
        {
          "indexed": true,
          "internalType": "address",
          "name": "operator",
          "type": "address"
        },
        {
          "indexed": false,
          "internalType": "bool",
          "name": "approved",
          "type": "bool"
        }
      ],
      "name": "ApprovalForAll",
      "type": "event"
    },
    {
      "anonymous": false,
      "inputs": [
        {
          "indexed": false,
          "internalType": "uint256",
          "name": "_fromTokenId",
          "type": "uint256"
        },
        {
          "indexed": false,
          "internalType": "uint256",
          "name": "_toTokenId",
          "type": "uint256"
        }
      ],
      "name": "BatchMetadataUpdate",
      "type": "event"
    },
    {
      "anonymous": false,
      "inputs": [
        {
          "indexed": false,
          "internalType": "uint256",
          "name": "_tokenId",
          "type": "uint256"
        }
      ],
      "name": "MetadataUpdate",
      "type": "event"
    },
    {
      "anonymous": false,
      "inputs": [
        {
          "indexed": true,
          "internalType": "uint256",
          "name": "productId",
          "type": "uint256"
        },
        {
          "indexed": false,
          "internalType": "string",
          "name": "metadata",
          "type": "string"
        },
        {
          "indexed": false,
          "internalType": "string",
          "name": "qrCode",
          "type": "string"
        },
        {
          "indexed": true,
          "internalType": "address",
          "name": "owner",
          "type": "address"
        }
      ],
      "name": "ProductCreated",
      "type": "event"
    },
    {
      "anonymous": false,
      "inputs": [
        {
          "indexed": true,
          "internalType": "uint256",
          "name": "productId",
          "type": "uint256"
        },
        {
          "indexed": true,
          "internalType": "address",
          "name": "from",
          "type": "address"
        },
        {
          "indexed": true,
          "internalType": "address",
          "name": "to",
          "type": "address"
        }
      ],
      "name": "ProductTransferred",
      "type": "event"
    },
    {
      "anonymous": false,
      "inputs": [
        {
          "indexed": true,
          "internalType": "uint256",
          "name": "productId",
          "type": "uint256"
        },
        {
          "indexed": true,
          "internalType": "address",
          "name": "verifier",
          "type": "address"
        }
      ],
      "name": "ProductVerified",
      "type": "event"
    },
    {
      "anonymous": false,
      "inputs": [
        {
          "indexed": true,
          "internalType": "bytes32",
          "name": "role",
          "type": "bytes32"
        },
        {
          "indexed": true,
          "internalType": "bytes32",
          "name": "previousAdminRole",
          "type": "bytes32"
        },
        {
          "indexed": true,
          "internalType": "bytes32",
          "name": "newAdminRole",
          "type": "bytes32"
        }
      ],
      "name": "RoleAdminChanged",
      "type": "event"
    },
    {
      "anonymous": false,
      "inputs": [
        {
          "indexed": true,
          "internalType": "bytes32",
          "name": "role",
          "type": "bytes32"
        },
        {
          "indexed": true,
          "internalType": "address",
          "name": "account",
          "type": "address"
        },
        {
          "indexed": true,
          "internalType": "address",
          "name": "sender",
          "type": "address"
        }
      ],
      "name": "RoleGranted",
      "type": "event"
    },
    {
      "anonymous": false,
      "inputs": [
        {
          "indexed": true,
          "internalType": "bytes32",
          "name": "role",
          "type": "bytes32"
        },
        {
          "indexed": true,
          "internalType": "address",
          "name": "account",
          "type": "address"
        },
        {
          "indexed": true,
          "internalType": "address",
          "name": "sender",
          "type": "address"
        }
      ],
      "name": "RoleRevoked",
      "type": "event"
    },
    {
      "anonymous": false,
      "inputs": [
        {
          "indexed": true,
          "internalType": "address",
          "name": "from",
          "type": "address"
        },
        {
          "indexed": true,
          "internalType": "address",
          "name": "to",
          "type": "address"
        },
        {
          "indexed": true,
          "internalType": "uint256",
          "name": "tokenId",
          "type": "uint256"
        }
      ],
      "name": "Transfer",
      "type": "event"
    },
    {
      "anonymous": false,
      "inputs": [
        {
          "indexed": true,
          "internalType": "uint256",
          "name": "productId",
          "type": "uint256"
        },
        {
          "indexed": false,
          "internalType": "uint256",
          "name": "latitude",
          "type": "uint256"
        },
        {
          "indexed": false,
          "internalType": "uint256",
          "name": "longitude",
          "type": "uint256"
        },
        {
          "indexed": true,
          "internalType": "address",
          "name": "updatedBy",
          "type": "address"
        }
      ],
      "name": "locationUpdated",
      "type": "event"
    },
    {
      "anonymous": false,
      "inputs": [
        {
          "indexed": true,
          "internalType": "uint256",
          "name": "productId",
          "type": "uint256"
        },
        {
          "indexed": false,
          "internalType": "uint256",
          "name": "newTrustScore",
          "type": "uint256"
        }
      ],
      "name": "trustScoreUpdated",
      "type": "event"
    },
    {
      "inputs": [],
      "name": "Consumer_role",
      "outputs": [
        {
          "internalType": "bytes32",
          "name": "",
          "type": "bytes32"
        }
      ],
      "stateMutability": "view",
      "type": "function"
    },
    {
      "inputs": [],
      "name": "DEFAULT_ADMIN_ROLE",
      "outputs": [
        {
          "internalType": "bytes32",
          "name": "",
          "type": "bytes32"
        }
      ],
      "stateMutability": "view",
      "type": "function"
    },
    {
      "inputs": [],
      "name": "Manufactor_role",
      "outputs": [
        {
          "internalType": "bytes32",
          "name": "",
          "type": "bytes32"
        }
      ],
      "stateMutability": "view",
      "type": "function"
    },
    {
      "inputs": [],
      "name": "Retailer_role",
      "outputs": [
        {
          "internalType": "bytes32",
          "name": "",
          "type": "bytes32"
        }
      ],
      "stateMutability": "view",
      "type": "function"
    },
    {
      "inputs": [],
      "name": "Transporter_role",
      "outputs": [
        {
          "internalType": "bytes32",
          "name": "",
          "type": "bytes32"
        }
      ],
      "stateMutability": "view",
      "type": "function"
    },
    {
      "inputs": [],
      "name": "Warehouse_role",
      "outputs": [
        {
          "internalType": "bytes32",
          "name": "",
          "type": "bytes32"
        }
      ],
      "stateMutability": "view",
      "type": "function"
    },
    {
      "inputs": [
        {
          "internalType": "address",
          "name": "to",
          "type": "address"
        },
        {
          "internalType": "uint256",
          "name": "tokenId",
          "type": "uint256"
        }
      ],
      "name": "approve",
      "outputs": [],
      "stateMutability": "nonpayable",
      "type": "function"
    },
    {
      "inputs": [
        {
          "internalType": "address",
          "name": "owner",
          "type": "address"
        }
      ],
      "name": "balanceOf",
      "outputs": [
        {
          "internalType": "uint256",
          "name": "",
          "type": "uint256"
        }
      ],
      "stateMutability": "view",
      "type": "function"
    },
    {
      "inputs": [
        {
          "internalType": "string",
          "name": "metadata",
          "type": "string"
        },
        {
          "internalType": "string",
          "name": "tokenURI",
          "type": "string"
        },
        {
          "internalType": "string",
          "name": "qrCode",
          "type": "string"
        }
      ],
      "name": "createproduct",
      "outputs": [
        {
          "internalType": "uint256",
          "name": "",
          "type": "uint256"
        }
      ],
      "stateMutability": "nonpayable",
      "type": "function"
    },
    {
      "inputs": [
        {
          "internalType": "uint256",
          "name": "productId",
          "type": "uint256"
        }
      ],
      "name": "existsProduct",
      "outputs": [
        {
          "internalType": "bool",
          "name": "",
          "type": "bool"
        }
      ],
      "stateMutability": "view",
      "type": "function"
    },
    {
      "inputs": [
        {
          "internalType": "uint256",
          "name": "tokenId",
          "type": "uint256"
        }
      ],
      "name": "getApproved",
      "outputs": [
        {
          "internalType": "address",
          "name": "",
          "type": "address"
        }
      ],
      "stateMutability": "view",
      "type": "function"
    },
    {
      "inputs": [
        {
          "internalType": "uint256",
          "name": "productId",
          "type": "uint256"
        }
      ],
      "name": "getProductLocationHistory",
      "outputs": [
        {
          "components": [
            {
              "internalType": "uint256",
              "name": "latitude",
              "type": "uint256"
            },
            {
              "internalType": "uint256",
              "name": "longitude",
              "type": "uint256"
            },
            {
              "internalType": "uint256",
              "name": "timestamp",
              "type": "uint256"
            },
            {
              "internalType": "address",
              "name": "updatedBy",
              "type": "address"
            }
          ],
          "internalType": "struct Supplychain.location[]",
          "name": "",
          "type": "tuple[]"
        }
      ],
      "stateMutability": "view",
      "type": "function"
    },
    {
      "inputs": [
        {
          "internalType": "bytes32",
          "name": "role",
          "type": "bytes32"
        }
      ],
      "name": "getRoleAdmin",
      "outputs": [
        {
          "internalType": "bytes32",
          "name": "",
          "type": "bytes32"
        }
      ],
      "stateMutability": "view",
      "type": "function"
    },
    {
      "inputs": [
        {
          "internalType": "uint256",
          "name": "productId",
          "type": "uint256"
        }
      ],
      "name": "getproductdetails",
      "outputs": [
        {
          "components": [
            {
              "internalType": "uint256",
              "name": "id",
              "type": "uint256"
            },
            {
              "internalType": "string",
              "name": "metadata",
              "type": "string"
            },
            {
              "internalType": "string",
              "name": "qrCode",
              "type": "string"
            },
            {
              "internalType": "address",
              "name": "currentOwner",
              "type": "address"
            },
            {
              "internalType": "uint256",
              "name": "trustscore",
              "type": "uint256"
            },
            {
              "internalType": "bool",
              "name": "exists",
              "type": "bool"
            },
            {
              "internalType": "bool",
              "name": "verified",
              "type": "bool"
            }
          ],
          "internalType": "struct Supplychain.product",
          "name": "",
          "type": "tuple"
        }
      ],
      "stateMutability": "view",
      "type": "function"
    },
    {
      "inputs": [
        {
          "internalType": "address",
          "name": "account",
          "type": "address"
        }
      ],
      "name": "grantConsumerRole",
      "outputs": [],
      "stateMutability": "nonpayable",
      "type": "function"
    },
    {
      "inputs": [
        {
          "internalType": "address",
          "name": "account",
          "type": "address"
        }
      ],
      "name": "grantManufactorRole",
      "outputs": [],
      "stateMutability": "nonpayable",
      "type": "function"
    },
    {
      "inputs": [
        {
          "internalType": "address",
          "name": "account",
          "type": "address"
        }
      ],
      "name": "grantRetailerRole",
      "outputs": [],
      "stateMutability": "nonpayable",
      "type": "function"
    },
    {
      "inputs": [
        {
          "internalType": "bytes32",
          "name": "role",
          "type": "bytes32"
        },
        {
          "internalType": "address",
          "name": "account",
          "type": "address"
        }
      ],
      "name": "grantRole",
      "outputs": [],
      "stateMutability": "nonpayable",
      "type": "function"
    },
    {
      "inputs": [
        {
          "internalType": "address",
          "name": "account",
          "type": "address"
        }
      ],
      "name": "grantTransporterRole",
      "outputs": [],
      "stateMutability": "nonpayable",
      "type": "function"
    },
    {
      "inputs": [
        {
          "internalType": "address",
          "name": "account",
          "type": "address"
        }
      ],
      "name": "grantWarehouseRole",
      "outputs": [],
      "stateMutability": "nonpayable",
      "type": "function"
    },
    {
      "inputs": [
        {
          "internalType": "bytes32",
          "name": "role",
          "type": "bytes32"
        },
        {
          "internalType": "address",
          "name": "account",
          "type": "address"
        }
      ],
      "name": "hasRole",
      "outputs": [
        {
          "internalType": "bool",
          "name": "",
          "type": "bool"
        }
      ],
      "stateMutability": "view",
      "type": "function"
    },
    {
      "inputs": [
        {
          "internalType": "address",
          "name": "owner",
          "type": "address"
        },
        {
          "internalType": "address",
          "name": "operator",
          "type": "address"
        }
      ],
      "name": "isApprovedForAll",
      "outputs": [
        {
          "internalType": "bool",
          "name": "",
          "type": "bool"
        }
      ],
      "stateMutability": "view",
      "type": "function"
    },
    {
      "inputs": [],
      "name": "name",
      "outputs": [
        {
          "internalType": "string",
          "name": "",
          "type": "string"
        }
      ],
      "stateMutability": "view",
      "type": "function"
    },
    {
      "inputs": [],
      "name": "nextProductId",
      "outputs": [
        {
          "internalType": "uint256",
          "name": "",
          "type": "uint256"
        }
      ],
      "stateMutability": "view",
      "type": "function"
    },
    {
      "inputs": [
        {
          "internalType": "uint256",
          "name": "tokenId",
          "type": "uint256"
        }
      ],
      "name": "ownerOf",
      "outputs": [
        {
          "internalType": "address",
          "name": "",
          "type": "address"
        }
      ],
      "stateMutability": "view",
      "type": "function"
    },
    {
      "inputs": [
        {
          "internalType": "uint256",
          "name": "",
          "type": "uint256"
        },
        {
          "internalType": "uint256",
          "name": "",
          "type": "uint256"
        }
      ],
      "name": "productLocations",
      "outputs": [
        {
          "internalType": "uint256",
          "name": "latitude",
          "type": "uint256"
        },
        {
          "internalType": "uint256",
          "name": "longitude",
          "type": "uint256"
        },
        {
          "internalType": "uint256",
          "name": "timestamp",
          "type": "uint256"
        },
        {
          "internalType": "address",
          "name": "updatedBy",
          "type": "address"
        }
      ],
      "stateMutability": "view",
      "type": "function"
    },
    {
      "inputs": [
        {
          "internalType": "uint256",
          "name": "",
          "type": "uint256"
        }
      ],
      "name": "products",
      "outputs": [
        {
          "internalType": "uint256",
          "name": "id",
          "type": "uint256"
        },
        {
          "internalType": "string",
          "name": "metadata",
          "type": "string"
        },
        {
          "internalType": "string",
          "name": "qrCode",
          "type": "string"
        },
        {
          "internalType": "address",
          "name": "currentOwner",
          "type": "address"
        },
        {
          "internalType": "uint256",
          "name": "trustscore",
          "type": "uint256"
        },
        {
          "internalType": "bool",
          "name": "exists",
          "type": "bool"
        },
        {
          "internalType": "bool",
          "name": "verified",
          "type": "bool"
        }
      ],
      "stateMutability": "view",
      "type": "function"
    },
    {
      "inputs": [
        {
          "internalType": "bytes32",
          "name": "role",
          "type": "bytes32"
        },
        {
          "internalType": "address",
          "name": "callerConfirmation",
          "type": "address"
        }
      ],
      "name": "renounceRole",
      "outputs": [],
      "stateMutability": "nonpayable",
      "type": "function"
    },
    {
      "inputs": [
        {
          "internalType": "bytes32",
          "name": "role",
          "type": "bytes32"
        },
        {
          "internalType": "address",
          "name": "account",
          "type": "address"
        }
      ],
      "name": "revokeRole",
      "outputs": [],
      "stateMutability": "nonpayable",
      "type": "function"
    },
    {
      "inputs": [
        {
          "internalType": "address",
          "name": "from",
          "type": "address"
        },
        {
          "internalType": "address",
          "name": "to",
          "type": "address"
        },
        {
          "internalType": "uint256",
          "name": "tokenId",
          "type": "uint256"
        }
      ],
      "name": "safeTransferFrom",
      "outputs": [],
      "stateMutability": "nonpayable",
      "type": "function"
    },
    {
      "inputs": [
        {
          "internalType": "address",
          "name": "from",
          "type": "address"
        },
        {
          "internalType": "address",
          "name": "to",
          "type": "address"
        },
        {
          "internalType": "uint256",
          "name": "tokenId",
          "type": "uint256"
        },
        {
          "internalType": "bytes",
          "name": "data",
          "type": "bytes"
        }
      ],
      "name": "safeTransferFrom",
      "outputs": [],
      "stateMutability": "nonpayable",
      "type": "function"
    },
    {
      "inputs": [
        {
          "internalType": "address",
          "name": "operator",
          "type": "address"
        },
        {
          "internalType": "bool",
          "name": "approved",
          "type": "bool"
        }
      ],
      "name": "setApprovalForAll",
      "outputs": [],
      "stateMutability": "nonpayable",
      "type": "function"
    },
    {
      "inputs": [
        {
          "internalType": "bytes4",
          "name": "interfaceId",
          "type": "bytes4"
        }
      ],
      "name": "supportsInterface",
      "outputs": [
        {
          "internalType": "bool",
          "name": "",
          "type": "bool"
        }
      ],
      "stateMutability": "view",
      "type": "function"
    },
    {
      "inputs": [],
      "name": "symbol",
      "outputs": [
        {
          "internalType": "string",
          "name": "",
          "type": "string"
        }
      ],
      "stateMutability": "view",
      "type": "function"
    },
    {
      "inputs": [
        {
          "internalType": "uint256",
          "name": "tokenId",
          "type": "uint256"
        }
      ],
      "name": "tokenURI",
      "outputs": [
        {
          "internalType": "string",
          "name": "",
          "type": "string"
        }
      ],
      "stateMutability": "view",
      "type": "function"
    },
    {
      "inputs": [
        {
          "internalType": "address",
          "name": "from",
          "type": "address"
        },
        {
          "internalType": "address",
          "name": "to",
          "type": "address"
        },
        {
          "internalType": "uint256",
          "name": "tokenId",
          "type": "uint256"
        }
      ],
      "name": "transferFrom",
      "outputs": [],
      "stateMutability": "nonpayable",
      "type": "function"
    },
    {
      "inputs": [
        {
          "internalType": "uint256",
          "name": "productId",
          "type": "uint256"
        },
        {
          "internalType": "address",
          "name": "newOwner",
          "type": "address"
        }
      ],
      "name": "transferownership",
      "outputs": [],
      "stateMutability": "nonpayable",
      "type": "function"
    },
    {
      "inputs": [
        {
          "internalType": "uint256",
          "name": "productId",
          "type": "uint256"
        },
        {
          "internalType": "uint256",
          "name": "latitude",
          "type": "uint256"
        },
        {
          "internalType": "uint256",
          "name": "longitude",
          "type": "uint256"
        }
      ],
      "name": "updateloction",
      "outputs": [],
      "stateMutability": "nonpayable",
      "type": "function"
    },
    {
      "inputs": [
        {
          "internalType": "uint256",
          "name": "productId",
          "type": "uint256"
        }
      ],
      "name": "verifyproduct",
      "outputs": [],
      "stateMutability": "nonpayable",
      "type": "function"
    }
  ],
  "bytecode": "0x608060405234801561001057600080fd5b506040518060400160405280600b81526020017f537570706c79636861696e0000000000000000000000000000000000000000008152506040518060400160405280600381526020017f5355500000000000000000000000000000000000000000000000000000000000815250816000908161008c9190610479565b50806001908161009c9190610479565b5050506100b26000801b336100b860201b60201c565b5061054b565b60006100ca83836101b660201b60201c565b6101ab5760016007600085815260200190815260200160002060000160008473ffffffffffffffffffffffffffffffffffffffff1673ffffffffffffffffffffffffffffffffffffffff16815260200190815260200160002060006101000a81548160ff02191690831515021790555061014861022160201b60201c565b73ffffffffffffffffffffffffffffffffffffffff168273ffffffffffffffffffffffffffffffffffffffff16847f2f8788117e7eff1d82e926ec794901d17c78024a50270940304540a733656f0d60405160405180910390a4600190506101b0565b600090505b92915050565b60006007600084815260200190815260200160002060000160008373ffffffffffffffffffffffffffffffffffffffff1673ffffffffffffffffffffffffffffffffffffffff16815260200190815260200160002060009054906101000a900460ff16905092915050565b600033905090565b600081519050919050565b7f4e487b7100000000000000000000000000000000000000000000000000000000600052604160045260246000fd5b7f4e487b7100000000000000000000000000000000000000000000000000000000600052602260045260246000fd5b600060028204905060018216806102aa57607f821691505b6020821081036102bd576102bc610263565b5b50919050565b60008190508160005260206000209050919050565b60006020601f8301049050919050565b600082821b905092915050565b6000600883026103257fffffffffffffffffffffffffffffffffffffffffffffffffffffffffffffffff826102e8565b61032f86836102e8565b95508019841693508086168417925050509392505050565b6000819050919050565b6000819050919050565b600061037661037161036c84610347565b610351565b610347565b9050919050565b6000819050919050565b6103908361035b565b6103a461039c8261037d565b8484546102f5565b825550505050565b600090565b6103b96103ac565b6103c4818484610387565b505050565b5b818110156103e8576103dd6000826103b1565b6001810190506103ca565b5050565b601f82111561042d576103fe816102c3565b610407846102d8565b81016020851015610416578190505b61042a610422856102d8565b8301826103c9565b50505b505050565b600082821c905092915050565b600061045060001984600802610432565b1980831691505092915050565b6000610469838361043f565b9150826002028217905092915050565b61048282610229565b67ffffffffffffffff81111561049b5761049a610234565b5b6104a58254610292565b6104b08282856103ec565b600060209050601f8311600181146104e357600084156104d1578287015190505b6104db858261045d565b865550610543565b601f1984166104f1866102c3565b60005b82811015610519578489015182556001820191506020850194506020810190506104f4565b868310156105365784890151610532601f89168261043f565b8355505b6001600288020188555050505b505050505050565b6145d28061055a6000396000f3fe608060405234801561001057600080fd5b506004361061023d5760003560e01c80637acc0b201161013b578063bc1d4445116100b8578063e985e9c51161007c578063e985e9c514610701578063eeaf4acc14610731578063f1b673b31461074f578063f463ae2c1461077f578063f9f806e11461079d5761023d565b8063bc1d444514610639578063c2dbebbb14610669578063c87b56dd14610685578063d547741f146106b5578063e7a26da1146106d15761023d565b8063a217fddf116100ff578063a217fddf146105a9578063a22cb465146105c7578063b14e6d4a146105e3578063b88d4fde146105ff578063bb60d7931461061b5761023d565b80637acc0b20146104e957806391d148541461051f57806393c9ab581461054f57806395d89b411461056d578063a12e91901461058b5761023d565b80633479c2e0116101c957806355f7642a1161018d57806355f7642a146104355780636352211e146104515780636cc3a64e1461048157806370a082311461049d5780637879920a146104cd5761023d565b80633479c2e0146103a757806336568abe146103c35780633a94f064146103df57806342842e0e146103fb5780634de91a63146104175761023d565b80631e413b17116102105780631e413b17146102dc57806323b872dd1461030f578063248a9ca31461032b5780632f2ff15d1461035b57806332327712146103775761023d565b806301ffc9a71461024257806306fdde0314610272578063081812fc14610290578063095ea7b3146102c0575b600080fd5b61025c60048036038101906102579190613288565b6107b9565b60405161026991906132d0565b60405180910390f35b61027a6107cb565b604051610287919061337b565b60405180910390f35b6102aa60048036038101906102a591906133d3565b61085d565b6040516102b79190613441565b60405180910390f35b6102da60048036038101906102d59190613488565b610879565b005b6102f660048036038101906102f191906134c8565b61088f565b6040516103069493929190613517565b60405180910390f35b6103296004803603810190610324919061355c565b6108fc565b005b610345600480360381019061034091906135e5565b6109fe565b6040516103529190613621565b60405180910390f35b6103756004803603810190610370919061363c565b610a1e565b005b610391600480360381019061038c91906137b1565b610a40565b60405161039e9190613858565b60405180910390f35b6103c160048036038101906103bc9190613873565b610c25565b005b6103dd60048036038101906103d8919061363c565b610c60565b005b6103f960048036038101906103f49190613873565b610cdb565b005b6104156004803603810190610410919061355c565b610d16565b005b61041f610d36565b60405161042c9190613858565b60405180910390f35b61044f600480360381019061044a91906138a0565b610d3c565b005b61046b600480360381019061046691906133d3565b611047565b6040516104789190613441565b60405180910390f35b61049b60048036038101906104969190613873565b611059565b005b6104b760048036038101906104b29190613873565b611094565b6040516104c49190613858565b60405180910390f35b6104e760048036038101906104e291906133d3565b61114e565b005b61050360048036038101906104fe91906133d3565b611252565b60405161051697969594939291906138f3565b60405180910390f35b6105396004803603810190610534919061363c565b6113de565b60405161054691906132d0565b60405180910390f35b610557611449565b6040516105649190613621565b60405180910390f35b61057561146d565b604051610582919061337b565b60405180910390f35b6105936114ff565b6040516105a09190613621565b60405180910390f35b6105b1611523565b6040516105be9190613621565b60405180910390f35b6105e160048036038101906105dc919061399c565b61152a565b005b6105fd60048036038101906105f89190613873565b611540565b005b61061960048036038101906106149190613a7d565b61157b565b005b6106236115a0565b6040516106309190613621565b60405180910390f35b610653600480360381019061064e91906133d3565b6115c4565b6040516106609190613c22565b60405180910390f35b610683600480360381019061067e9190613c44565b61170d565b005b61069f600480360381019061069a91906133d3565b611942565b6040516106ac919061337b565b60405180910390f35b6106cf60048036038101906106ca919061363c565b611a55565b005b6106eb60048036038101906106e691906133d3565b611a77565b6040516106f89190613d80565b60405180910390f35b61071b60048036038101906107169190613da2565b611ccb565b60405161072891906132d0565b60405180910390f35b610739611d5f565b6040516107469190613621565b60405180910390f35b610769600480360381019061076491906133d3565b611d83565b60405161077691906132d0565b60405180910390f35b610787611db0565b6040516107949190613621565b60405180910390f35b6107b760048036038101906107b29190613873565b611dd4565b005b60006107c482611e0f565b9050919050565b6060600080546107da90613e11565b80601f016020809104026020016040519081016040528092919081815260200182805461080690613e11565b80156108535780601f1061082857610100808354040283529160200191610853565b820191906000526020600020905b81548152906001019060200180831161083657829003601f168201915b5050505050905090565b600061086882611e89565b5061087282611f11565b9050919050565b61088b8282610886611f4e565b611f56565b5050565b600960205281600052604060002081815481106108ab57600080fd5b9060005260206000209060040201600091509150508060000154908060010154908060020154908060030160009054906101000a900473ffffffffffffffffffffffffffffffffffffffff16905084565b600073ffffffffffffffffffffffffffffffffffffffff168273ffffffffffffffffffffffffffffffffffffffff160361096e5760006040517f64a0ae920000000000000000000000000000000000000000000000000000000081526004016109659190613441565b60405180910390fd5b6000610982838361097d611f4e565b611f68565b90508373ffffffffffffffffffffffffffffffffffffffff168173ffffffffffffffffffffffffffffffffffffffff16146109f8578382826040517f64283d7b0000000000000000000000000000000000000000000000000000000081526004016109ef93929190613e42565b60405180910390fd5b50505050565b600060076000838152602001908152602001600020600101549050919050565b610a27826109fe565b610a3081612182565b610a3a8383612196565b50505050565b60007ff551e6c6c223ea64e7d88df70e41b497179b4266277ef71f25d534d50d48e17f610a6c81612182565b6000600a6000815480929190610a8190613ea8565b9190505590506040518060e001604052808281526020018781526020018581526020013373ffffffffffffffffffffffffffffffffffffffff168152602001600081526020016001151581526020016000151581525060086000838152602001908152602001600020600082015181600001556020820151816001019081610b09919061409c565b506040820151816002019081610b1f919061409c565b5060608201518160030160006101000a81548173ffffffffffffffffffffffffffffffffffffffff021916908373ffffffffffffffffffffffffffffffffffffffff1602179055506080820151816004015560a08201518160050160006101000a81548160ff02191690831515021790555060c08201518160050160016101000a81548160ff021916908315150217905550905050610bbe3382612288565b610bc881866122a6565b3373ffffffffffffffffffffffffffffffffffffffff16817f5f1912a9c5f8a881e905d410b7f74013932df43b5dec69d074d965f102e19af88887604051610c1192919061416e565b60405180910390a380925050509392505050565b6000801b610c3281612182565b610c5c7faac53439bd8bd079432ddf9a77f0bf60ed770eb955a5cfe446a47d91abb8948283610a1e565b5050565b610c68611f4e565b73ffffffffffffffffffffffffffffffffffffffff168173ffffffffffffffffffffffffffffffffffffffff1614610ccc576040517f6697b23200000000000000000000000000000000000000000000000000000000815260040160405180910390fd5b610cd68282612302565b505050565b6000801b610ce881612182565b610d127f83eb373e8e79e78f2642774c2b64f4851337b45436f01af0c6f9f71fded359e883610a1e565b5050565b610d318383836040518060200160405280600081525061157b565b505050565b600a5481565b6008600084815260200190815260200160002060050160009054906101000a900460ff16610d9f576040517f08c379a0000000000000000000000000000000000000000000000000000000008152600401610d96906141f1565b60405180910390fd5b610dc97f83eb373e8e79e78f2642774c2b64f4851337b45436f01af0c6f9f71fded359e8336113de565b80610dfa5750610df97faac53439bd8bd079432ddf9a77f0bf60ed770eb955a5cfe446a47d91abb89482336113de565b5b80610e2b5750610e2a7ff551e6c6c223ea64e7d88df70e41b497179b4266277ef71f25d534d50d48e17f336113de565b5b80610e5c5750610e5b7f1534e98f9dd33e3681193a0541f0c2e3d732d183dcdc630aac2b943280af42a0336113de565b5b610e9b576040517f08c379a0000000000000000000000000000000000000000000000000000000008152600401610e929061425d565b60405180910390fd5b6009600084815260200190815260200160002060405180608001604052808481526020018381526020014281526020013373ffffffffffffffffffffffffffffffffffffffff16815250908060018154018082558091505060019003906000526020600020906004020160009091909190915060008201518160000155602082015181600101556040820151816002015560608201518160030160006101000a81548173ffffffffffffffffffffffffffffffffffffffff021916908373ffffffffffffffffffffffffffffffffffffffff16021790555050506001600860008581526020019081526020016000206004016000828254610f9c919061427d565b925050819055503373ffffffffffffffffffffffffffffffffffffffff16837fb16c6da89b17822057448f3395f51f5506bac31c13810d170730cb6e4ea409758484604051610fec9291906142b1565b60405180910390a3827fa2d2e431814b557ff28e5eea4a77557111a29fd88eb96ed4900986dd537a9df4600860008681526020019081526020016000206004015460405161103a9190613858565b60405180910390a2505050565b600061105282611e89565b9050919050565b6000801b61106681612182565b6110907fc0878b4b16a78e8085cba0ca02fc0924f1492924058d153153a3f286e0fd70ff83610a1e565b5050565b60008073ffffffffffffffffffffffffffffffffffffffff168273ffffffffffffffffffffffffffffffffffffffff16036111075760006040517f89c62b640000000000000000000000000000000000000000000000000000000081526004016110fe9190613441565b60405180910390fd5b600360008373ffffffffffffffffffffffffffffffffffffffff1673ffffffffffffffffffffffffffffffffffffffff168152602001908152602001600020549050919050565b7fc0878b4b16a78e8085cba0ca02fc0924f1492924058d153153a3f286e0fd70ff61117881612182565b6008600083815260200190815260200160002060050160009054906101000a900460ff166111db576040517f08c379a00000000000000000000000000000000000000000000000000000000081526004016111d2906141f1565b60405180910390fd5b60016008600084815260200190815260200160002060050160016101000a81548160ff0219169083151502179055503373ffffffffffffffffffffffffffffffffffffffff16827fab60911bebc6d3ab48620594e409545834da76f4995297ebc48ca5589f25437b60405160405180910390a35050565b600860205280600052604060002060009150905080600001549080600101805461127b90613e11565b80601f01602080910402602001604051908101604052809291908181526020018280546112a790613e11565b80156112f45780601f106112c9576101008083540402835291602001916112f4565b820191906000526020600020905b8154815290600101906020018083116112d757829003601f168201915b50505050509080600201805461130990613e11565b80601f016020809104026020016040519081016040528092919081815260200182805461133590613e11565b80156113825780601f1061135757610100808354040283529160200191611382565b820191906000526020600020905b81548152906001019060200180831161136557829003601f168201915b5050505050908060030160009054906101000a900473ffffffffffffffffffffffffffffffffffffffff16908060040154908060050160009054906101000a900460ff16908060050160019054906101000a900460ff16905087565b60006007600084815260200190815260200160002060000160008373ffffffffffffffffffffffffffffffffffffffff1673ffffffffffffffffffffffffffffffffffffffff16815260200190815260200160002060009054906101000a900460ff16905092915050565b7fc0878b4b16a78e8085cba0ca02fc0924f1492924058d153153a3f286e0fd70ff81565b60606001805461147c90613e11565b80601f01602080910402602001604051908101604052809291908181526020018280546114a890613e11565b80156114f55780601f106114ca576101008083540402835291602001916114f5565b820191906000526020600020905b8154815290600101906020018083116114d857829003601f168201915b5050505050905090565b7faac53439bd8bd079432ddf9a77f0bf60ed770eb955a5cfe446a47d91abb8948281565b6000801b81565b61153c611535611f4e565b83836123f5565b5050565b6000801b61154d81612182565b6115777ff551e6c6c223ea64e7d88df70e41b497179b4266277ef71f25d534d50d48e17f83610a1e565b5050565b6115868484846108fc565b61159a611591611f4e565b85858585612564565b50505050565b7ff551e6c6c223ea64e7d88df70e41b497179b4266277ef71f25d534d50d48e17f81565b60606008600083815260200190815260200160002060050160009054906101000a900460ff16611629576040517f08c379a0000000000000000000000000000000000000000000000000000000008152600401611620906141f1565b60405180910390fd5b60096000838152602001908152602001600020805480602002602001604051908101604052809291908181526020016000905b8282101561170257838290600052602060002090600402016040518060800160405290816000820154815260200160018201548152602001600282015481526020016003820160009054906101000a900473ffffffffffffffffffffffffffffffffffffffff1673ffffffffffffffffffffffffffffffffffffffff1673ffffffffffffffffffffffffffffffffffffffff16815250508152602001906001019061165c565b505050509050919050565b6008600083815260200190815260200160002060050160009054906101000a900460ff16611770576040517f08c379a0000000000000000000000000000000000000000000000000000000008152600401611767906141f1565b60405180910390fd5b6008600083815260200190815260200160002060030160009054906101000a900473ffffffffffffffffffffffffffffffffffffffff1673ffffffffffffffffffffffffffffffffffffffff163373ffffffffffffffffffffffffffffffffffffffff1614611814576040517f08c379a000000000000000000000000000000000000000000000000000000000815260040161180b9061434c565b60405180910390fd5b600073ffffffffffffffffffffffffffffffffffffffff168173ffffffffffffffffffffffffffffffffffffffff1603611883576040517f08c379a000000000000000000000000000000000000000000000000000000000815260040161187a906143b8565b60405180910390fd5b61188e338284612715565b806008600084815260200190815260200160002060030160006101000a81548173ffffffffffffffffffffffffffffffffffffffff021916908373ffffffffffffffffffffffffffffffffffffffff1602179055508073ffffffffffffffffffffffffffffffffffffffff163373ffffffffffffffffffffffffffffffffffffffff16837fcef86d37ba3dc1d682967cde44d8050488734bf53166725b220b4d2e515e9e9360405160405180910390a45050565b606061194d82611e89565b50600060066000848152602001908152602001600020805461196e90613e11565b80601f016020809104026020016040519081016040528092919081815260200182805461199a90613e11565b80156119e75780601f106119bc576101008083540402835291602001916119e7565b820191906000526020600020905b8154815290600101906020018083116119ca57829003601f168201915b5050505050905060006119f8612882565b90506000815103611a0d578192505050611a50565b600082511115611a42578082604051602001611a2a929190614414565b60405160208183030381529060405292505050611a50565b611a4b84612899565b925050505b919050565b611a5e826109fe565b611a6781612182565b611a718383612302565b50505050565b611a7f6131c5565b6008600083815260200190815260200160002060050160009054906101000a900460ff16611ae2576040517f08c379a0000000000000000000000000000000000000000000000000000000008152600401611ad9906141f1565b60405180910390fd5b600860008381526020019081526020016000206040518060e001604052908160008201548152602001600182018054611b1a90613e11565b80601f0160208091040260200160405190810160405280929190818152602001828054611b4690613e11565b8015611b935780601f10611b6857610100808354040283529160200191611b93565b820191906000526020600020905b815481529060010190602001808311611b7657829003601f168201915b50505050508152602001600282018054611bac90613e11565b80601f0160208091040260200160405190810160405280929190818152602001828054611bd890613e11565b8015611c255780601f10611bfa57610100808354040283529160200191611c25565b820191906000526020600020905b815481529060010190602001808311611c0857829003601f168201915b505050505081526020016003820160009054906101000a900473ffffffffffffffffffffffffffffffffffffffff1673ffffffffffffffffffffffffffffffffffffffff1673ffffffffffffffffffffffffffffffffffffffff168152602001600482015481526020016005820160009054906101000a900460ff161515151581526020016005820160019054906101000a900460ff1615151515815250509050919050565b6000600560008473ffffffffffffffffffffffffffffffffffffffff1673ffffffffffffffffffffffffffffffffffffffff16815260200190815260200160002060008373ffffffffffffffffffffffffffffffffffffffff1673ffffffffffffffffffffffffffffffffffffffff16815260200190815260200160002060009054906101000a900460ff16905092915050565b7f83eb373e8e79e78f2642774c2b64f4851337b45436f01af0c6f9f71fded359e881565b60006008600083815260200190815260200160002060050160009054906101000a900460ff169050919050565b7f1534e98f9dd33e3681193a0541f0c2e3d732d183dcdc630aac2b943280af42a081565b6000801b611de181612182565b611e0b7f1534e98f9dd33e3681193a0541f0c2e3d732d183dcdc630aac2b943280af42a083610a1e565b5050565b60007f7965db0b000000000000000000000000000000000000000000000000000000007bffffffffffffffffffffffffffffffffffffffffffffffffffffffff1916827bffffffffffffffffffffffffffffffffffffffffffffffffffffffff19161480611e825750611e8182612902565b5b9050919050565b600080611e9583612963565b9050600073ffffffffffffffffffffffffffffffffffffffff168173ffffffffffffffffffffffffffffffffffffffff1603611f0857826040517f7e273289000000000000000000000000000000000000000000000000000000008152600401611eff9190613858565b60405180910390fd5b80915050919050565b60006004600083815260200190815260200160002060009054906101000a900473ffffffffffffffffffffffffffffffffffffffff169050919050565b600033905090565b611f6383838360016129a0565b505050565b600080611f7484612963565b9050600073ffffffffffffffffffffffffffffffffffffffff168373ffffffffffffffffffffffffffffffffffffffff1614611fb657611fb5818486612b65565b5b600073ffffffffffffffffffffffffffffffffffffffff168173ffffffffffffffffffffffffffffffffffffffff161461204757611ff86000856000806129a0565b6001600360008373ffffffffffffffffffffffffffffffffffffffff1673ffffffffffffffffffffffffffffffffffffffff168152602001908152602001600020600082825403925050819055505b600073ffffffffffffffffffffffffffffffffffffffff168573ffffffffffffffffffffffffffffffffffffffff16146120ca576001600360008773ffffffffffffffffffffffffffffffffffffffff1673ffffffffffffffffffffffffffffffffffffffff168152602001908152602001600020600082825401925050819055505b846002600086815260200190815260200160002060006101000a81548173ffffffffffffffffffffffffffffffffffffffff021916908373ffffffffffffffffffffffffffffffffffffffff160217905550838573ffffffffffffffffffffffffffffffffffffffff168273ffffffffffffffffffffffffffffffffffffffff167fddf252ad1be2c89b69c2b068fc378daa952ba7f163c4a11628f55a4df523b3ef60405160405180910390a4809150509392505050565b6121938161218e611f4e565b612c29565b50565b60006121a283836113de565b61227d5760016007600085815260200190815260200160002060000160008473ffffffffffffffffffffffffffffffffffffffff1673ffffffffffffffffffffffffffffffffffffffff16815260200190815260200160002060006101000a81548160ff02191690831515021790555061221a611f4e565b73ffffffffffffffffffffffffffffffffffffffff168273ffffffffffffffffffffffffffffffffffffffff16847f2f8788117e7eff1d82e926ec794901d17c78024a50270940304540a733656f0d60405160405180910390a460019050612282565b600090505b92915050565b6122a2828260405180602001604052806000815250612c7a565b5050565b806006600084815260200190815260200160002090816122c6919061409c565b507ff8e1a15aba9398e019f0b49df1a4fde98ee17ae345cb5f6b5e2c27f5033e8ce7826040516122f69190613858565b60405180910390a15050565b600061230e83836113de565b156123ea5760006007600085815260200190815260200160002060000160008473ffffffffffffffffffffffffffffffffffffffff1673ffffffffffffffffffffffffffffffffffffffff16815260200190815260200160002060006101000a81548160ff021916908315150217905550612387611f4e565b73ffffffffffffffffffffffffffffffffffffffff168273ffffffffffffffffffffffffffffffffffffffff16847ff6391f5c32d9c69d2a47ea670b442974b53935d1edc7fd64eb21e047a839171b60405160405180910390a4600190506123ef565b600090505b92915050565b600073ffffffffffffffffffffffffffffffffffffffff168273ffffffffffffffffffffffffffffffffffffffff160361246657816040517f5b08ba1800000000000000000000000000000000000000000000000000000000815260040161245d9190613441565b60405180910390fd5b80600560008573ffffffffffffffffffffffffffffffffffffffff1673ffffffffffffffffffffffffffffffffffffffff16815260200190815260200160002060008473ffffffffffffffffffffffffffffffffffffffff1673ffffffffffffffffffffffffffffffffffffffff16815260200190815260200160002060006101000a81548160ff0219169083151502179055508173ffffffffffffffffffffffffffffffffffffffff168373ffffffffffffffffffffffffffffffffffffffff167f17307eab39ab6107e8899845ad3d59bd9653f200f220920489ca2b5937696c318360405161255791906132d0565b60405180910390a3505050565b60008373ffffffffffffffffffffffffffffffffffffffff163b111561270e578273ffffffffffffffffffffffffffffffffffffffff1663150b7a02868685856040518563ffffffff1660e01b81526004016125c3949392919061448d565b6020604051808303816000875af19250505080156125ff57506040513d601f19601f820116820180604052508101906125fc91906144ee565b60015b612683573d806000811461262f576040519150601f19603f3d011682016040523d82523d6000602084013e612634565b606091505b50600081510361267b57836040517f64a0ae920000000000000000000000000000000000000000000000000000000081526004016126729190613441565b60405180910390fd5b805160208201fd5b63150b7a0260e01b7bffffffffffffffffffffffffffffffffffffffffffffffffffffffff1916817bffffffffffffffffffffffffffffffffffffffffffffffffffffffff19161461270c57836040517f64a0ae920000000000000000000000000000000000000000000000000000000081526004016127039190613441565b60405180910390fd5b505b5050505050565b600073ffffffffffffffffffffffffffffffffffffffff168273ffffffffffffffffffffffffffffffffffffffff16036127875760006040517f64a0ae9200000000000000000000000000000000000000000000000000000000815260040161277e9190613441565b60405180910390fd5b600061279583836000611f68565b9050600073ffffffffffffffffffffffffffffffffffffffff168173ffffffffffffffffffffffffffffffffffffffff160361280857816040517f7e2732890000000000000000000000000000000000000000000000000000000081526004016127ff9190613858565b60405180910390fd5b8373ffffffffffffffffffffffffffffffffffffffff168173ffffffffffffffffffffffffffffffffffffffff161461287c578382826040517f64283d7b00000000000000000000000000000000000000000000000000000000815260040161287393929190613e42565b60405180910390fd5b50505050565b606060405180602001604052806000815250905090565b60606128a482611e89565b5060006128af612882565b905060008151116128cf57604051806020016040528060008152506128fa565b806128d984612c9e565b6040516020016128ea929190614414565b6040516020818303038152906040525b915050919050565b6000634906490660e01b7bffffffffffffffffffffffffffffffffffffffffffffffffffffffff1916827bffffffffffffffffffffffffffffffffffffffffffffffffffffffff1916148061295c575061295b82612d6c565b5b9050919050565b60006002600083815260200190815260200160002060009054906101000a900473ffffffffffffffffffffffffffffffffffffffff169050919050565b80806129d95750600073ffffffffffffffffffffffffffffffffffffffff168273ffffffffffffffffffffffffffffffffffffffff1614155b15612b0d5760006129e984611e89565b9050600073ffffffffffffffffffffffffffffffffffffffff168373ffffffffffffffffffffffffffffffffffffffff1614158015612a5457508273ffffffffffffffffffffffffffffffffffffffff168173ffffffffffffffffffffffffffffffffffffffff1614155b8015612a675750612a658184611ccb565b155b15612aa957826040517fa9fbf51f000000000000000000000000000000000000000000000000000000008152600401612aa09190613441565b60405180910390fd5b8115612b0b57838573ffffffffffffffffffffffffffffffffffffffff168273ffffffffffffffffffffffffffffffffffffffff167f8c5be1e5ebec7d5bd14f71427d1e84f3dd0314c0f7b2291e5b200ac8c7c3b92560405160405180910390a45b505b836004600085815260200190815260200160002060006101000a81548173ffffffffffffffffffffffffffffffffffffffff021916908373ffffffffffffffffffffffffffffffffffffffff16021790555050505050565b612b70838383612e4e565b612c2457600073ffffffffffffffffffffffffffffffffffffffff168373ffffffffffffffffffffffffffffffffffffffff1603612be557806040517f7e273289000000000000000000000000000000000000000000000000000000008152600401612bdc9190613858565b60405180910390fd5b81816040517f177e802f000000000000000000000000000000000000000000000000000000008152600401612c1b92919061451b565b60405180910390fd5b505050565b612c3382826113de565b612c765780826040517fe2517d3f000000000000000000000000000000000000000000000000000000008152600401612c6d929190614544565b60405180910390fd5b5050565b612c848383612f0f565b612c99612c8f611f4e565b6000858585612564565b505050565b606060006001612cad84613008565b01905060008167ffffffffffffffff811115612ccc57612ccb613686565b5b6040519080825280601f01601f191660200182016040528015612cfe5781602001600182028036833780820191505090505b509050600082602083010190505b600115612d61578080600190039150507f3031323334353637383961626364656600000000000000000000000000000000600a86061a8153600a8581612d5557612d5461456d565b5b04945060008503612d0c575b819350505050919050565b60007f80ac58cd000000000000000000000000000000000000000000000000000000007bffffffffffffffffffffffffffffffffffffffffffffffffffffffff1916827bffffffffffffffffffffffffffffffffffffffffffffffffffffffff19161480612e3757507f5b5e139f000000000000000000000000000000000000000000000000000000007bffffffffffffffffffffffffffffffffffffffffffffffffffffffff1916827bffffffffffffffffffffffffffffffffffffffffffffffffffffffff1916145b80612e475750612e468261315b565b5b9050919050565b60008073ffffffffffffffffffffffffffffffffffffffff168373ffffffffffffffffffffffffffffffffffffffff1614158015612f0657508273ffffffffffffffffffffffffffffffffffffffff168473ffffffffffffffffffffffffffffffffffffffff161480612ec75750612ec68484611ccb565b5b80612f0557508273ffffffffffffffffffffffffffffffffffffffff16612eed83611f11565b73ffffffffffffffffffffffffffffffffffffffff16145b5b90509392505050565b600073ffffffffffffffffffffffffffffffffffffffff168273ffffffffffffffffffffffffffffffffffffffff1603612f815760006040517f64a0ae92000000000000000000000000000000000000000000000000000000008152600401612f789190613441565b60405180910390fd5b6000612f8f83836000611f68565b9050600073ffffffffffffffffffffffffffffffffffffffff168173ffffffffffffffffffffffffffffffffffffffff16146130035760006040517f73c6ac6e000000000000000000000000000000000000000000000000000000008152600401612ffa9190613441565b60405180910390fd5b505050565b600080600090507a184f03e93ff9f4daa797ed6e38ed64bf6a1f0100000000000000008310613066577a184f03e93ff9f4daa797ed6e38ed64bf6a1f010000000000000000838161305c5761305b61456d565b5b0492506040810190505b6d04ee2d6d415b85acef810000000083106130a3576d04ee2d6d415b85acef810000000083816130995761309861456d565b5b0492506020810190505b662386f26fc1000083106130d257662386f26fc1000083816130c8576130c761456d565b5b0492506010810190505b6305f5e10083106130fb576305f5e10083816130f1576130f061456d565b5b0492506008810190505b61271083106131205761271083816131165761311561456d565b5b0492506004810190505b6064831061314357606483816131395761313861456d565b5b0492506002810190505b600a8310613152576001810190505b80915050919050565b60007f01ffc9a7000000000000000000000000000000000000000000000000000000007bffffffffffffffffffffffffffffffffffffffffffffffffffffffff1916827bffffffffffffffffffffffffffffffffffffffffffffffffffffffff1916149050919050565b6040518060e00160405280600081526020016060815260200160608152602001600073ffffffffffffffffffffffffffffffffffffffff168152602001600081526020016000151581526020016000151581525090565b6000604051905090565b600080fd5b600080fd5b60007fffffffff0000000000000000000000000000000000000000000000000000000082169050919050565b61326581613230565b811461327057600080fd5b50565b6000813590506132828161325c565b92915050565b60006020828403121561329e5761329d613226565b5b60006132ac84828501613273565b91505092915050565b60008115159050919050565b6132ca816132b5565b82525050565b60006020820190506132e560008301846132c1565b92915050565b600081519050919050565b600082825260208201905092915050565b60005b8381101561332557808201518184015260208101905061330a565b60008484015250505050565b6000601f19601f8301169050919050565b600061334d826132eb565b61335781856132f6565b9350613367818560208601613307565b61337081613331565b840191505092915050565b600060208201905081810360008301526133958184613342565b905092915050565b6000819050919050565b6133b08161339d565b81146133bb57600080fd5b50565b6000813590506133cd816133a7565b92915050565b6000602082840312156133e9576133e8613226565b5b60006133f7848285016133be565b91505092915050565b600073ffffffffffffffffffffffffffffffffffffffff82169050919050565b600061342b82613400565b9050919050565b61343b81613420565b82525050565b60006020820190506134566000830184613432565b92915050565b61346581613420565b811461347057600080fd5b50565b6000813590506134828161345c565b92915050565b6000806040838503121561349f5761349e613226565b5b60006134ad85828601613473565b92505060206134be858286016133be565b9150509250929050565b600080604083850312156134df576134de613226565b5b60006134ed858286016133be565b92505060206134fe858286016133be565b9150509250929050565b6135118161339d565b82525050565b600060808201905061352c6000830187613508565b6135396020830186613508565b6135466040830185613508565b6135536060830184613432565b95945050505050565b60008060006060848603121561357557613574613226565b5b600061358386828701613473565b935050602061359486828701613473565b92505060406135a5868287016133be565b9150509250925092565b6000819050919050565b6135c2816135af565b81146135cd57600080fd5b50565b6000813590506135df816135b9565b92915050565b6000602082840312156135fb576135fa613226565b5b6000613609848285016135d0565b91505092915050565b61361b816135af565b82525050565b60006020820190506136366000830184613612565b92915050565b6000806040838503121561365357613652613226565b5b6000613661858286016135d0565b925050602061367285828601613473565b9150509250929050565b600080fd5b600080fd5b7f4e487b7100000000000000000000000000000000000000000000000000000000600052604160045260246000fd5b6136be82613331565b810181811067ffffffffffffffff821117156136dd576136dc613686565b5b80604052505050565b60006136f061321c565b90506136fc82826136b5565b919050565b600067ffffffffffffffff82111561371c5761371b613686565b5b61372582613331565b9050602081019050919050565b82818337600083830152505050565b600061375461374f84613701565b6136e6565b9050828152602081018484840111156137705761376f613681565b5b61377b848285613732565b509392505050565b600082601f8301126137985761379761367c565b5b81356137a8848260208601613741565b91505092915050565b6000806000606084860312156137ca576137c9613226565b5b600084013567ffffffffffffffff8111156137e8576137e761322b565b5b6137f486828701613783565b935050602084013567ffffffffffffffff8111156138155761381461322b565b5b61382186828701613783565b925050604084013567ffffffffffffffff8111156138425761384161322b565b5b61384e86828701613783565b9150509250925092565b600060208201905061386d6000830184613508565b92915050565b60006020828403121561388957613888613226565b5b600061389784828501613473565b91505092915050565b6000806000606084860312156138b9576138b8613226565b5b60006138c7868287016133be565b93505060206138d8868287016133be565b92505060406138e9868287016133be565b9150509250925092565b600060e082019050613908600083018a613508565b818103602083015261391a8189613342565b9050818103604083015261392e8188613342565b905061393d6060830187613432565b61394a6080830186613508565b61395760a08301856132c1565b61396460c08301846132c1565b98975050505050505050565b613979816132b5565b811461398457600080fd5b50565b60008135905061399681613970565b92915050565b600080604083850312156139b3576139b2613226565b5b60006139c185828601613473565b92505060206139d285828601613987565b9150509250929050565b600067ffffffffffffffff8211156139f7576139f6613686565b5b613a0082613331565b9050602081019050919050565b6000613a20613a1b846139dc565b6136e6565b905082815260208101848484011115613a3c57613a3b613681565b5b613a47848285613732565b509392505050565b600082601f830112613a6457613a6361367c565b5b8135613a74848260208601613a0d565b91505092915050565b60008060008060808587031215613a9757613a96613226565b5b6000613aa587828801613473565b9450506020613ab687828801613473565b9350506040613ac7878288016133be565b925050606085013567ffffffffffffffff811115613ae857613ae761322b565b5b613af487828801613a4f565b91505092959194509250565b600081519050919050565b600082825260208201905092915050565b6000819050602082019050919050565b613b358161339d565b82525050565b613b4481613420565b82525050565b608082016000820151613b606000850182613b2c565b506020820151613b736020850182613b2c565b506040820151613b866040850182613b2c565b506060820151613b996060850182613b3b565b50505050565b6000613bab8383613b4a565b60808301905092915050565b6000602082019050919050565b6000613bcf82613b00565b613bd98185613b0b565b9350613be483613b1c565b8060005b83811015613c15578151613bfc8882613b9f565b9750613c0783613bb7565b925050600181019050613be8565b5085935050505092915050565b60006020820190508181036000830152613c3c8184613bc4565b905092915050565b60008060408385031215613c5b57613c5a613226565b5b6000613c69858286016133be565b9250506020613c7a85828601613473565b9150509250929050565b600082825260208201905092915050565b6000613ca0826132eb565b613caa8185613c84565b9350613cba818560208601613307565b613cc381613331565b840191505092915050565b613cd7816132b5565b82525050565b600060e083016000830151613cf56000860182613b2c565b5060208301518482036020860152613d0d8282613c95565b91505060408301518482036040860152613d278282613c95565b9150506060830151613d3c6060860182613b3b565b506080830151613d4f6080860182613b2c565b5060a0830151613d6260a0860182613cce565b5060c0830151613d7560c0860182613cce565b508091505092915050565b60006020820190508181036000830152613d9a8184613cdd565b905092915050565b60008060408385031215613db957613db8613226565b5b6000613dc785828601613473565b9250506020613dd885828601613473565b9150509250929050565b7f4e487b7100000000000000000000000000000000000000000000000000000000600052602260045260246000fd5b60006002820490506001821680613e2957607f821691505b602082108103613e3c57613e3b613de2565b5b50919050565b6000606082019050613e576000830186613432565b613e646020830185613508565b613e716040830184613432565b949350505050565b7f4e487b7100000000000000000000000000000000000000000000000000000000600052601160045260246000fd5b6000613eb38261339d565b91507fffffffffffffffffffffffffffffffffffffffffffffffffffffffffffffffff8203613ee557613ee4613e79565b5b600182019050919050565b60008190508160005260206000209050919050565b60006020601f8301049050919050565b600082821b905092915050565b600060088302613f527fffffffffffffffffffffffffffffffffffffffffffffffffffffffffffffffff82613f15565b613f5c8683613f15565b95508019841693508086168417925050509392505050565b6000819050919050565b6000613f99613f94613f8f8461339d565b613f74565b61339d565b9050919050565b6000819050919050565b613fb383613f7e565b613fc7613fbf82613fa0565b848454613f22565b825550505050565b600090565b613fdc613fcf565b613fe7818484613faa565b505050565b5b8181101561400b57614000600082613fd4565b600181019050613fed565b5050565b601f8211156140505761402181613ef0565b61402a84613f05565b81016020851015614039578190505b61404d61404585613f05565b830182613fec565b50505b505050565b600082821c905092915050565b600061407360001984600802614055565b1980831691505092915050565b600061408c8383614062565b9150826002028217905092915050565b6140a5826132eb565b67ffffffffffffffff8111156140be576140bd613686565b5b6140c88254613e11565b6140d382828561400f565b600060209050601f83116001811461410657600084156140f4578287015190505b6140fe8582614080565b865550614166565b601f19841661411486613ef0565b60005b8281101561413c57848901518255600182019150602085019450602081019050614117565b868310156141595784890151614155601f891682614062565b8355505b6001600288020188555050505b505050505050565b600060408201905081810360008301526141888185613342565b9050818103602083015261419c8184613342565b90509392505050565b7f50726f6475637420646f6573206e6f7420657869737400000000000000000000600082015250565b60006141db6016836132f6565b91506141e6826141a5565b602082019050919050565b6000602082019050818103600083015261420a816141ce565b9050919050565b7f556e617574686f72697a65640000000000000000000000000000000000000000600082015250565b6000614247600c836132f6565b915061425282614211565b602082019050919050565b600060208201905081810360008301526142768161423a565b9050919050565b60006142888261339d565b91506142938361339d565b92508282019050808211156142ab576142aa613e79565b5b92915050565b60006040820190506142c66000830185613508565b6142d36020830184613508565b9392505050565b7f4f6e6c792063757272656e74206f776e65722063616e207472616e736665722060008201527f6f776e6572736869700000000000000000000000000000000000000000000000602082015250565b60006143366029836132f6565b9150614341826142da565b604082019050919050565b6000602082019050818103600083015261436581614329565b9050919050565b7f4e6577206f776e65722063616e6e6f74206265207a65726f2061646472657373600082015250565b60006143a26020836132f6565b91506143ad8261436c565b602082019050919050565b600060208201905081810360008301526143d181614395565b9050919050565b600081905092915050565b60006143ee826132eb565b6143f881856143d8565b9350614408818560208601613307565b80840191505092915050565b600061442082856143e3565b915061442c82846143e3565b91508190509392505050565b600081519050919050565b600082825260208201905092915050565b600061445f82614438565b6144698185614443565b9350614479818560208601613307565b61448281613331565b840191505092915050565b60006080820190506144a26000830187613432565b6144af6020830186613432565b6144bc6040830185613508565b81810360608301526144ce8184614454565b905095945050505050565b6000815190506144e88161325c565b92915050565b60006020828403121561450457614503613226565b5b6000614512848285016144d9565b91505092915050565b60006040820190506145306000830185613432565b61453d6020830184613508565b9392505050565b60006040820190506145596000830185613432565b6145666020830184613612565b9392505050565b7f4e487b7100000000000000000000000000000000000000000000000000000000600052601260045260246000fdfea2646970667358221220e8039dc01da8ec5a155b3a42ef1ab8be4400b448be93b371de6caea4ceddd16c64736f6c634300081c0033",
  "linkReferences": {},
  "deployedLinkReferences": {}
}